:100000000C949F010C949F1E0C94741E0C94491E1A
:100010000C941E1E0C94F31D0C94C81D0C949D1D75
:100020000C94721D0C94D0010C94D0010C94D0014E
:100030000C94D0010C94CA1E0C94D0010C94D001E5
:100040000C94D0010C94C71F0C94D0010C94D001D7
:100050000C94D0010C94D0010C94D0010C94281D68
:100060000C94D0010C94911F0C94671F0C94D00138
:100070000C94D0010C94D0010C94D0010C94D001BC
:100080000C94D0010C94D0010C94D0010C94D001AC
:100090000C94D0010C94D0010C94D0010C94041C4D
:1000A0000C94D0010C94D0010C94D0010C94D0018C
:1000B0000C94D0010C94D0010C94D0010C94D0017C
:1000C0000C94D0010C94D0010C94D0010C94D0016C
:1000D0000C94D0010C94D0010C94D0010C94D0015C
:1000E0000C94D0010C94C4260C94DF020C94CD0225
:1000F0000C94C3020C94C7020C94690A0C945B0222
:100100000C94AA0A0C94BA020C94D5020C942702FF
:100110000C9404020C9400080C94AE020C94420857
:100120000C94E9080C94BD020C9414020C94B602D1
:100130000C94310A0C94270A0C94A8020C94010820
:100140000C94070A0C941D0A0C945F0A0C94820A02
:100150000C944B0A0C94E9020C94780A0C94330822
:100160000C9430080C94180A0C9403080C940502A3
:100170000C94430A0C94B2020C94FB070C948C0A66
:100180000C94FF0B0C94E8020C9456080C949C08F9
:100190000C9464080C94A00A0C94D1020C94DC0119
:1001A0000C94E3020C943B0A0C942F110C94FF075F
:1001B0000C942E020C946F200C9402080C94DB0219
:1001C0000C94550A0C94DB010C94ED020C94960AE5
:1001D000000020002300260029002C002F00320000
:1001E00000010000030106010901CDCCCC3D0AD776
:1001F000233C17B7D13877CC2B329595E6241FB125
:100200004F0A0000803FCDCCCC3D6F12833A95BFA2
:10021000D6337D1D9026B3CE010C00002041000096
:10022000C84200401C4620BCBE4CCA1B0E5AAEC57C
:100230009D740200002100240027002A002D0030B8
:1002400000330001010000040107010A010000223F
:1002500000250028002B002E003100340002010090
:1002600000050108010B010505050507050808083B
:1002700008020202020A0A08080404040401010137
:10028000010101010103030303030303030407073F
:10029000070C0C0C0C0C0C0C0C02020202060606DD
:1002A00006060606060B0B0B0B0B0B0B0B010210C5
:1002B0002020080810204010204080020102010880
:1002C0000402010102040810204080804020100830
:1002D0000402018004020180402010080402010889
:1002E00004020101020408102040800102040810E9
:1002F00020408000000A0B02090C0D0E08070304C1
:1003000001000000000000000000000000000000EC
:1003100000000000000000000000000000000012CB
:1003200011100000000000000000000000000000AC
:10033000000000000000000000006F20C42611240F
:100340001FBECFEFD1E2DEBFCDBF00E00CBF13E098
:10035000A0E0B2E0E0E4F5E500E00BBF02C00790EA
:100360000D92AE35B107D9F725E0AEE5B3E001C097
:100370001D92AC3DB207E1F711E0CEE9D1E000E01B
:1003800006C021970109802FFE010E943E28CD3929
:10039000D10780E00807A9F70E94E0210C948E2A7B
:1003A0000C9400008FB7F8948091E1038FBF0895FB
:1003B0008CBD9DBD0895089508952091B803260F22
:1003C0003327331F21323105ECF420912804FC013E
:1003D00090E080E0243069F082E00895A091B803B5
:1003E0002191AC0148565C4FA40FB52FB11D2C9341
:1003F0000196861798F38091B803680F6093B8034D
:1004000080E0089581E008950895E091E0038091EF
:10041000DF03E81730F4F0E0EE51FC4F808190E00C
:1004200008958FEF9FEF08959091E0038091DF038F
:100430002FEF3FEF981748F4E92FF0E0EE51FC4F13
:10044000208130E09F5F9093E003C901089580917F
:10045000DF039091E003891B990B0895CF92DF92FF
:10046000EF92FF920F931F93CF93DF937C01CB0109
:100470008A0120912E04222389F0EB016B01C40E26
:10048000D51ECC15DD0569F06991D701ED91FC9180
:100490000190F081E02DC7011995F3CF642F0E94E0
:1004A000DD01C801DF91CF911F910F91FF90EF9077
:1004B000DF90CF900895CF93DF931F92CDB7DEB733
:1004C000698320912E042223F9F0209151042032D7
:1004D00058F021E030E0FC013383228390E080E09B
:1004E0000F90DF91CF91089580912F04E82FF0E0D5
:1004F000E05DFB4F998190838F5F80932F04809301
:10050000510481E090E0ECCF61E0CE0101960E94C1
:10051000DD01F7CF8150823108F05AC0E82FF0E0BA
:100520008827EA56FD4F8F4F0C943E28B602BA0238
:10053000A802AE02B202E802BD02C302C702CD02A7
:10054000D102D502DB02DF02E802E302E902ED029A
:10055000809180008F778093800008958091800043
:100560008F7DF9CF80918000877FF5CF84B58F771D
:1005700084BD089584B58F7DFBCF8091B0008F77C7
:100580008093B00008958091B0008F7DF9CF809165
:1005900090008F77809390000895809190008F7DD8
:1005A000F9CF80919000877FF5CF8091A0008F7761
:1005B0008093A00008958091A0008F7DF9CF809155
:1005C000A000877FF5CF809120018F778093200155
:1005D0000895809120018F7DF9CF80912001877F40
:1005E000F5CF1F93CF93DF93282F30E0F901ED5023
:1005F000FD4F8491F901E355FD4FD491F901E9597B
:10060000FD4FC491CC23A9F0162F81110E948A02BC
:10061000EC2FF0E0EE0FFF1FE35BFD4FA591B491CF
:100620008FB7F894EC91111108C0D095DE23DC93BC
:100630008FBFDF91CF911F910895DE2BF8CF1092DD
:10064000280481E0809327041092020461E084E191
:100650000E94F10261E085E10E94F102E9EBF0E025
:1006600080818E7F808380818D7F808388E48093EA
:10067000B80085E48093BC000895CF93DF9391E0A8
:10068000909397038823B9F0C091B800D091BA0035
:100690008091BC008A7B8093BC0060E084E10E9472
:1006A000F10260E085E10E94F1020E941F03D093F5
:1006B000BA00C093B800DF91CF910895CF93DF9334
:1006C00090E0FC01E355FD4F249189599D4FFC01B9
:1006D00084918823C9F090E0880F991FFC01ED5C9C
:1006E000FD4FA591B491FC01E35BFD4FC591D49101
:1006F00061110DC09FB7F8948C91209582238C9343
:100700008881282328839FBFDF91CF91089562308D
:1007100051F49FB7F8943C91822F809583238C935A
:10072000E8812E2BEFCF8FB7F894EC912E2B2C93E2
:100730008FBFEACF8230910538F0880F991F880F5C
:10074000991F05970197F1F70895AF92BF92CF9245
:10075000DF92EF92FF920F931F93CF93DF93EC0101
:1007600088819981892B89F06EBD0DB407FEFDCF7C
:10077000BEB48B2DDF91CF911F910F91FF90EF9021
:10078000DF90CF90BF90AF9008958885998511E054
:10079000892B09F010E8AA24A394862F812309F05D
:1007A000A12C062F2C813D814E815F8160E271EA90
:1007B00087E090E00E94F927F22EB02EE12CC22EA5
:1007C000D12CFF2019F0C6010E949A038A85877FE9
:1007D00009F042C08D858F3F89F0902F912381E0F1
:1007E00009F480E08A1551F0EF85F8898F89992303
:1007F00069F19081892B8083AA24A394E989FA89DD
:100800008081998D892B8083FF2019F0C6010E9479
:100810009A038E858F3F39F0EB89FC898081988D12
:10082000892309F0E12AE989FA899081898D8095E7
:10083000892380838E858F3F09F0BE2C888599851A
:10084000892BB9F5110F1111BCCF93CF90818095F1
:1008500089238083A12CD2CFE989FA898081998D5F
:10086000892B8083FF2019F0C6010E949A038D8591
:100870008F3F49F0EF85F8898F89902F9123A9F058
:100880009081892B8083E989FA899081898D80956F
:10089000892380838E858F3F69F2EB89FC89808173
:1008A000988D892339F2E12AC5CF908180958923DB
:1008B000E9CF1695C8CF8F929F92AF92BF92CF92F9
:1008C000DF92EF92FF920F931F93CF93DF93EC0190
:1008D0004B016A01B22EA32E88819981892B31F0B8
:1008E000EA81FB81808191810E94D80160E08B8543
:1008F0000E94F1027401C80CD91CEC14FD0479F4B7
:10090000EB2CFA2C0E0D1F1D0E151F0579F06FEF45
:10091000CE010E94A503F70181937F01F5CFF70176
:1009200061917F01CE010E94A503E7CF61E08B8535
:100930000E94F10281E0DF91CF911F910F91FF9012
:10094000EF90DF90CF90BF90AF909F908F900895E1
:100950008F929F92AF92BF92CF92DF92EF92FF92CF
:100960000F931F93CF93DF93EC01B62EA72E6A014E
:10097000490188819981892B31F0EA81FB8180814D
:1009800091810E94D80160E08B850E94F102740180
:10099000080D191DE016F10671F40B2D1A2DC00E6D
:1009A000D11EC016D10671F0F80161918F01CE0100
:1009B0000E94A503F6CFF70161917F01CE010E944D
:1009C000A503E8CF61E08B850E94F10281E0DF9111
:1009D000CF911F910F91FF90EF90DF90CF90BF903C
:1009E000AF909F908F9008953FB7F89480919303B4
:1009F00090919403A0919503B091960326B5A89B7E
:100A000005C02F3F19F00196A11DB11D3FBFBA2FA0
:100A1000A92F982F8827BC01CD01620F711D811D60
:100A2000911D42E0660F771F881F991F4A95D1F7E5
:100A300008958F929F92AF92BF92CF92DF92EF92E2
:100A4000FF920F931F93CF93DF93D0915104D13234
:100A500008F0D7C0182FC09150040E94F4046B0115
:100A60007C018091280481116BC082E0809328046E
:100A7000109327048FEF8093260410922504D093BF
:100A80002404A0E3B4E0E4E0F4E080E0D81391C0F3
:100A90001092030480910304CC0FC82BC09303046D
:100AA00080910204813009F088C0109202040E94F3
:100AB000F4046B017C01809103048093BB0080915E
:100AC0002A0490912B04A0912C04B0912D04892B21
:100AD0008A2B8B2BA1F00E94F40400912A04109120
:100AE0002B0420912C0430912D046C197D098E0962
:100AF0009F09061717072807390708F442C0809195
:100B0000BC0083FDD8CF85EC8093BC000E94F40428
:100B10006B017C0180912804823009F450C08091DF
:100B200026048F3F09F46FC080912604803209F4B7
:100B30006CC080912604803309F469C084E026C02B
:100B400080912A0490912B04A0912C04B0912D0443
:100B5000892B8A2B8B2B09F484CF0E94F40480907C
:100B60002A0490902B04A0902C04B0902D046C19B2
:100B70007D098E099F0986169706A806B90608F012
:100B800070CF809129040E943D0385E010922F04CC
:100B90001092510410922E04DF91CF911F910F916A
:100BA000FF90EF90DF90CF90BF90AF909F908F908D
:100BB00008959D9191938F5F69CF85EEA5CF809128
:100BC0002A0490912B04A0912C04B0912D04892B20
:100BD0008A2B8B2B09F49ECF0E94F40400912A04E7
:100BE00010912B0420912C0430912D046C197D0957
:100BF0008E099F09061717072807390708F08ACFBB
:100C0000C0CF81E0C3CF80E0C1CF82E0BFCF83E01F
:100C1000BDCFCF93DF93EC018B818823A1F0888136
:100C200091E090932E048093500410922F04109220
:100C3000510481E00E94190591E0811190E0892F13
:100C4000DF91CF9108951092E0031092DF0310928C
:100C50002F04109251040E941F038BED91E090939A
:100C6000DC038093DB038CED91E09093DE038093B3
:100C7000DD0381E08B83CE010E940906982F81114C
:100C8000CECFDDCFCF93DF93EA0191E090932E0496
:100C90008093500410922F041092510482E594E046
:100CA0000E945B02688182E594E00E945B0281E021
:100CB0000E94190591E0811190E0892FDF91CF9179
:100CC00008951F93CF93DF93EA01122FDC01119651
:100CD0008D919C91DC01ED91FC910280F381E02DDE
:100CE0001995C817D90729F4812F0E94190591E099
:100CF000811190E0892FDF91CF911F910895CF92BC
:100D0000DF92EF92FF920F931F93CF93DF931F9287
:100D10001F92CDB7DEB7FC014787508B618B728B7A
:100D20008285882371F14487452F562F672F7727B7
:100D3000882349F143877F018BE0E80EF11C9681FF
:100D4000878199838A83C080D180C114D10409F43A
:100D500043C0018510E098012E5F3F4FD6011496E5
:100D60008D919C918217930780F480E00F900F90F3
:100D7000DF91CF911F910F91FF90EF90DF90CF9077
:100D800008954387D1CF4487D6CFF60181819281E0
:100D9000208131E030932E042093500410922F04D0
:100DA000109251040115110541F421E042E050E098
:100DB000B701C6010E946106D9CFDC01ED91FC911B
:100DC0000280F381E02DA801BE016F5F7F4F19956E
:100DD0000817190751F6E9CFA281B381109729F2BC
:100DE00024813581018510E02330310579F48E7F2F
:100DF00089839A830F5F1F4F9E012F5F3F4F42E011
:100E000050E0B701CD010E94A804B0CF21153105F3
:100E100019F49F779983F0CF2230310511F490684F
:100E2000F9CF2130310541F79F779064F3CF8F924E
:100E30009F92AF92BF92CF92DF92EF92FF920F9369
:100E40001F93CF93DF93D82FC62F142F613208F052
:100E50009CC00E94F4046B017C01809128048111E4
:100E60006FC081E080932804109327049FEF909334
:100E70002604109225049C0F90932404809303046D
:100E800080910304DD0FD82BD093030480910204DA
:100E9000813009F07CC0109202040E94F4046B01BE
:100EA0007C01809103048093BB0080912A0490917F
:100EB0002B04A0912C04B0912D04892B8A2B8B2B11
:100EC000A1F00E94F40400912A0410912B042091B7
:100ED0002C0430912D046C197D098E099F09061789
:100EE00017072807390708F44CC08091BC0083FD20
:100EF000D8CF85EC8093BC000E94F4046B017C0188
:100F000080912804813009F444C0809125048C1715
:100F100010F4C0912504E4E0F4E0A2EEB3E080E038
:100F20008C1359C08C2FDF91CF911F910F91FF909F
:100F3000EF90DF90CF90BF90AF909F908F900895EB
:100F400080912A0490912B04A0912C04B0912D043F
:100F5000892B8A2B8B2B09F480CF0E94F40480907C
:100F60002A0490902B04A0902C04B0902D046C19AE
:100F70007D098E099F0986169706A806B90608F00E
:100F80006CCF809129040E943D03C0E0CBCF85EE59
:100F9000B1CF80912A0490912B04A0912C04B091A0
:100FA0002D04892B8A2B8B2B09F4AACF0E94F404E1
:100FB00000912A0410912B0420912C0430912D04CF
:100FC0006C197D098E099F0906171707280739072D
:100FD00008F096CFD6CF91919D938F5FA1CF2FB779
:100FE000F89460918F037091900380919103909198
:100FF00092032FBF089581E080938C030895089594
:10100000089508950895AF92BF92CF92DF92EF9224
:10101000FF920F931F93CF93DF936C017B018B01A2
:10102000040F151FEB015E01AE18BF08C017D107F2
:1010300059F06991D601ED91FC910190F081E02D7C
:10104000C6011995892B79F7C501DF91CF911F91C1
:101050000F91FF90EF90DF90CF90BF90AF900895E9
:1010600090E080E00895FC01538D448D252F30E001
:10107000842F90E0821B930B541710F0CF960895A5
:1010800001970895FC01918D828D981761F0A28DD2
:10109000AE0FBF2FB11D5D968C91928D9F5F9F7398
:1010A000928F90E008958FEF9FEF0895FC01918D4E
:1010B000828D981731F0828DE80FF11D858D90E0BB
:1010C00008958FEF9FEF0895FC01918D228D892F58
:1010D00090E0805C9F4F821B91098F739927089540
:1010E0008EE594E00E94640821E0892B09F420E059
:1010F000822F0895FC01A48DA80FB92FB11DA35A0A
:10110000BF4F2C91848D90E001968F739927848F27
:10111000A689B7892C93A089B1898C91837080644A
:101120008C93938D848D981306C00288F389E02DEB
:1011300080818F7D80830895EF92FF920F931F939C
:10114000CF93DF93EC0181E0888F9B8D8C8D98137A
:101150001AC0E889F989808185FF15C09FB7F89486
:10116000EE89FF896083E889F989808183708064D2
:1011700080839FBF81E090E0DF91CF911F910F911D
:10118000FF90EF900895F62E0B8D10E00F5F1F4F2C
:101190000F731127E02E8C8D8E110CC00FB607FC3B
:1011A000FACFE889F989808185FFF5CFCE010E94C9
:1011B0007A08F1CFEB8DEC0FFD2FF11DE35AFF4FB5
:1011C000F0829FB7F8940B8FEA89FB898081806257
:1011D000CFCFCF93DF93EC01888D8823B9F0AA8914
:1011E000BB89E889F9898C9185FD03C0808186FDE2
:1011F0000DC00FB607FCF7CF8C9185FFF2CF808131
:1012000085FFEDCFCE010E947A08E9CFDF91CF9123
:10121000089581E080938D0308950E9470088823CB
:1012200019F081E080938D0380E090E0892B49F0F4
:1012300080E090E0892B29F00E94000081110E943B
:10124000000080E090E0892B49F080E090E0892B5D
:1012500029F00E94000081110E94000080E090E0CF
:10126000892B49F080E090E0892B29F00E94000052
:1012700081110C94000008950F931F93CF93DF9377
:10128000EC010E94EF070E811F8128853985061722
:10129000170728073907B8F58A858823A1F18B85B8
:1012A0009C85AD85BE85892B8A2B8B2B61F1E881CE
:1012B000F98119958B859C85AD85BE851816190613
:1012C0001A061B0684F48F859889A989BA89019723
:1012D000A109B1098F87988BA98BBA8B892B8A2B8F
:1012E0008B2B09F41A860E94EF070A811B812C813F
:1012F0003D81DC01CB01800F911FA21FB31F8E83A4
:101300009F83A887B987DF91CF911F910F9108958F
:101310008F929F92AF92BF92CF92DF92EF92FF9205
:101320000F931F93CF93DF93EC016A017B0120E0C1
:1013300030E04FE753E4CB01B6010E9430274B0168
:101340005C0120E030E0A9010E945B2918168CF5B1
:10135000C501B4010E9425298B01B98020E030E04D
:10136000A901C701B6010E945B2960E018160CF0C4
:1013700061E08B2D0E94F1020F3F110509F0ECF4A2
:101380001127C88161E08C2F0E945E0301151105B1
:10139000B9F460E08C2FDF91CF911F910F91FF90F6
:1013A000EF90DF90CF90BF90AF909F908F900C9474
:1013B000F102C501B4019058CDCF0FEF10E0E1CF9D
:1013C0000F3F110511F461E0E5CFEC2FF0E0ED5097
:1013D000FD4FE491E150E23108F0BCC0F0E0882715
:1013E000EB50F64F8F4F0C943E28070A180A1D0A3F
:1013F000270A310AAA0A3B0A430A4B0A550A5F0A1E
:10140000690A780A820AAA0A8C0A960AA00A84B58E
:10141000806884BD07BDDF91CF911F910F91FF9030
:10142000EF90DF90CF90BF90AF909F908F900895F6
:1014300084B5806284BD08BDEECF80918000806855
:10144000809380001093890000938800E4CF8091FE
:10145000800080628093800010938B0000938A004C
:10146000DACF8091800088608093800010938D0097
:1014700000938C00D0CF8091B00080688093B00042
:101480000093B300C8CF8091B00080628093B00019
:101490000093B400C0CF809190008068809390004A
:1014A0001093990000939800B6CF809190008062CD
:1014B0008093900010939B0000939A00ACCF809192
:1014C000900088608093900010939D0000939C0092
:1014D000A2CF8091A00080688093A0008091A0009E
:1014E0008F7B8093A0001093A9000093A80093CF56
:1014F0008091A00080628093A0001093AB000093C5
:10150000AA0089CF8091A00088608093A0001093EA
:10151000AD000093AC007FCF809120018068809364
:101520002001109329010093280175CF809120019B
:1015300080628093200110932B0100932A016BCFCE
:101540008091200188608093200110932D010093E9
:101550002C0161CF003811050CF035CF1ACF8EBDAC
:1015600000000DB407FEFDCF8EB50895FA01309747
:1015700051F0248120782C602483608371838283DE
:10158000938381E0089580E00895CF93DF93EC0189
:1015900088819981DC01ED91FC910190F081E02D31
:1015A00019952A813B81820F931F9B838A83DF9148
:1015B000CF910895CF93DF93EC0188819981DC016D
:1015C000ED91FC910280F381E02D19952A813B81F8
:1015D000820F931F9B838A83DF91CF9108958F920F
:1015E0009F92AF92BF92CF92DF92EF92FF920F93B2
:1015F0001F93CF93DF93CDB7DEB766970FB6F894FE
:10160000DEBF0FBECDBF6C018E01095E1F4F78019A
:101610008AE0882E912CA12CB12CCB01BA01A50116
:1016200094010E94F927942F852F605DF801629341
:101630008F01A901692F782F4115510561057105A9
:1016400061F7A7014E1B5F0BBF01C6010E94DA0ABA
:1016500066960FB6F894DEBF0FBECDBFDF91CF9177
:101660001F910F91FF90EF90DF90CF90BF90AF90C0
:101670009F908F900895EF92FF920F931F93CF93B7
:10168000DF93EC017B0162E20E94C50A8701F80149
:1016900061918F01662391F0EFE4F2E0F280FF2088
:1016A00049F0329681816813F9CF6CE5CE010E9432
:1016B000C50A6F2DCE010E94C50AE9CF62E2CE01B4
:1016C000DF91CF911F910F91FF90EF900C94C50A7D
:1016D00080339CF08A3324F08F3524F08B3724F448
:1016E00081E0089581344CF08B35D4F393ED980F5D
:1016F00081E09230B0F380E008958B32B9F7F0CFFB
:10170000CF92DF92EF92FF920F931F93CF93DF93CD
:10171000EC018C85811130C009851A850E94EF0784
:10172000D80118966D937D938D939C931B97D80148
:10173000ED91FC910284F385E02DC801199597FF86
:1017400025C00E94EF07F801C084D184E284F384AD
:101750006C197D098E099F09C480D580E680F780C9
:101760006C157D058E059F0510F38FEF9FEF97FD9C
:1017700080E08B8781E08C878B85DF91CF911F91F3
:101780000F91FF90EF90DF90CF9008959927EFCFC2
:101790001F93CF93DF93EC01162F0E94800B8113D0
:1017A00006C01C8681E0DF91CF911F91089580E0F3
:1017B000FACFCF93DF93EC01CE010E94800B8B30E8
:1017C0003CF489304CF4882349F081E0888710C0CC
:1017D0008D3011F08032C9F71C86EECF88858111DB
:1017E0000AC081E090E0C15BDF4F9983888380E08D
:1017F000DF91CF91089582E090E0F5CF0895CF93E7
:10180000DF9320917F0330E0F901ED50FD4F84918B
:10181000F901E355FD4FD491F901E959FD4FC49108
:10182000CC2321F181110E948A02EC2FF0E0EE0F0F
:10183000FF1FE053FE4FA591B491EC91ED23B1F061
:101840008091800390918103A0918203B0918303E2
:101850000196A11DB11D8093800390938103A093F5
:101860008203B0938303DF91CF9108958091800329
:1018700090918103A0918203B09183030197A10904
:10188000B109E9CFFC01828193810097C1F02481E5
:101890003581468157812417350740F01382128223
:1018A0000190F081E02D81E080870895A9014F5FCC
:1018B0005F4F55834483820F931FFC01608308951B
:1018C0009F92AF92BF92CF92DF92EF92FF920F93CF
:1018D0001F93CF93DF9300D01F921F92CDB7DEB737
:1018E0008C010E94800BD82EF8011486F12CE12C7B
:1018F00070EFC72EC8010E94800BF8011486D8161D
:1019000009F4C1C0811119C0F801E15BFF4F82E009
:1019100090E09183808380E00F900F900F900F9064
:101920000F90DF91CF911F910F91FF90EF90DF907B
:10193000CF90BF90AF909F9008958C3509F09EC0D6
:10194000C8010E94800B8823F9F2EFE4F2E08537AA
:1019500009F088C0F801148664E0962EB12CA12C01
:10196000C8010E94800B882379F281344CF48053A3
:10197000803148F0F801E15BFF4F83E090E0C9CF90
:101980008F7D8753F5CF54E0AA0CBB1C5A95E1F725
:10199000A82AF80114869A949110E2CFC501985DA7
:1019A0008115944020F4750123E0F222A3CFC501F4
:1019B0009C5D8115944008F5F3E0BF22C701982F84
:1019C0008827990F990F8A299B29B0E0A0E01196EA
:1019D000198280389105A105B10598F48A835E01CA
:1019E00023E0A20EB11CF50162915F01662309F4A8
:1019F00081CFC8010E94420CF6CFC501B0E0A0E043
:101A0000E7CF282F2F7320682A8336E0B695A79555
:101A1000979587953A95D1F78032910538F4806C87
:101A20008B835E0184E0A80EB11CDDCF282F2F73BD
:101A300020682B8326E0969587952A95E1F78031DB
:101A4000910538F4806E8C835E01E5E0AE0EB11C2A
:101A5000CACF80688C83CD825E01F6E0AF0EB11CE8
:101A6000C2CF32969081992309F484CF8913F9CF9C
:101A70008181882309F47ECFF8011486682FC8017C
:101A80000E94420C37CF60E0C8010E94420CF8016E
:101A900082819381892B29F4E15BFF4F84E090E000
:101AA00038CF81E039CF4F925F926F927F928F92C1
:101AB0009F92AF92BF92CF92DF92EF92FF920F93DD
:101AC0001F93CF93DF93EC018B0188818B32C9F197
:101AD0008D32C1F52196FF24F394888190ED980F03
:101AE0009A3018F08E3209F04DC160E070E0CB0101
:101AF000FE012191A0ED8A2E820E39E0381520F1E9
:101B00006A3949E97407840749E1940738F5AAE07E
:101B1000B0E09B01AC010E94EE27912CB12CA12CCE
:101B200024013501409450946094709446165706F1
:101B30006806790698F0680D791D8A1D9B1DEF01D6
:101B4000D7CF2196F12CC9CF211108C0FF20F1F188
:101B500061307105810550E89507A0F0E12CEAE0BD
:101B60008E2E912CA12CB12C61157105F0E88F07F8
:101B70009105C0F1A50194010E94F927CA01B9019C
:101B8000E394F2CFF801248120782A6024839B011A
:101B9000AC0188279927DC01821B930BA40BB50BA2
:101BA00080839183A283B3838F2DDF91CF911F9187
:101BB0000F91FF90EF90DF90CF90BF90AF909F90EC
:101BC0008F907F906F905F904F900895F8012481DF
:101BD0002078286024836083718382839383FF2429
:101BE000F394E2CFFE01299130ED320F3A3010F438
:101BF000E394F8CF2E32F1F4EF012196FE01219605
:101C0000208150EDD52ED20E29E02D1598F06C3C98
:101C10003CEC73073CE08307910580F7AAE0B0E055
:101C20009B01AC010E94EE276D0D711D811D911D60
:101C3000EA94E4CF20812F7DD0E0C0E0253409F084
:101C40005DC021812D32D9F53296CC24C394DF01B9
:101C5000D0E0C0E02E2D0E2C000C330B4AE0B42E49
:101C6000FD01DD9040ED4D0D4A3008F042C0BC9EB4
:101C7000A001BD9E500D1124CD2DDD0CDD0BE09794
:101C8000C40FD51FAE01420F531F4732510544F315
:101C9000F8018481CC20D1F040E050E060E070E8B1
:101CA000F11003C040E050E0BA0180788C60F80188
:101CB00084834083518362837383FC2C75CF2B32E2
:101CC00019F03196C12CC3CF3296FCCF40E050E0E2
:101CD00060E87FEFF11004C040E050E060E87FE78B
:101CE00080788C60F801848340835183628373839E
:101CF00076CFCC2019F0D195C195D1092081211141
:101D000041C0CE0DD11DE7FCDA950E94CF261C16EE
:101D10001D0604F5E12CC0FF0CC024E0E29EF0019A
:101D20001124E65EFD4F25913591459154910E9415
:101D30003027D595C795E394209769F7F11090580F
:101D4000F801248120782C6024836083718382834E
:101D5000938345CFD195C195D109E12C209771F39B
:101D6000C0FF0CC044E0E49EF0011124E651FE4F98
:101D700025913591459154910E943027D595C7956D
:101D8000E394ECCFF12C10CFCF93DF9300D01F92D0
:101D90001F92CDB7DEB7009741F0FC0184818F77A9
:101DA000863091F030F4843020F560E070E0CB01B3
:101DB00011C08A30B9F08C3049F18830B1F76081B8
:101DC00071818281938104C0608170E090E080E045
:101DD0000E94CF260F900F900F900F900F90DF91E1
:101DE000CF91089560817181828193810E94D12673
:101DF000F1CF808191811D82BE016F5F7F4F0E9474
:101E0000530DCE0101960E94C40EE4CF6081718112
:101E100082819381DFCFCF93DF93DC01EB01EC81F3
:101E2000FD818A819B810896E817F90740F481E0DB
:101E30008887F0E0E0E0CF01DF91CF9108953897F7
:101E4000FD83EC833097B9F31296CD91DC91139713
:101E5000209791F0CF018C1B9D0B23E095958795E2
:101E60002A95E1F78D831396FC93EE9312971582D2
:101E7000148217821682DFCF1196FC93EE93F3CF74
:101E8000009739F0FC0194819F7781E019F080E0A0
:101E9000089581E00895FC01248126FF12C080810D
:101EA0009181009781F06150710968F0FC012581F2
:101EB000222339F0F8E02F0290011124820F931FA2
:101EC000F2CF90E080E00895FC012581222339F0D3
:101ED000F8E02F0290011124820F931F089590E0E3
:101EE00080E00895CF92DF92EF92FF920F931F93BD
:101EF000CF93DF931F921F92CDB7DEB77C016B01AA
:101F0000DC0116969C91169717968C9117979983DA
:101F10008A830D911C9111970115110509F465C073
:101F200019964C9150E0F8018481958184179507AA
:101F300098F0808191E090932E0480935004109249
:101F40002F041092510420E0BE016F5F7F4FC80143
:101F50000E94610681110CC080E00F900F90DF910C
:101F6000CF911F910F91FF90EF90DF90CF90089548
:101F7000D80114968D919C911597029768F341E0D2
:101F800062E08C910E9417071092E0038093DF03B8
:101F9000823011F7F80181819281DC01ED91FC9191
:101FA0000284F385E02D1995F7018387D8011196F6
:101FB0008D919C91DC01ED91FC910284F385E02DE3
:101FC0001995F7018487F7018285811142C08485C4
:101FD00090E0982F8827D60111969C938E932385A5
:101FE000822B8D939C9381E0B8CF1296ED91FC915A
:101FF0001397309709F4B0CF9701255F3F4F1496A0
:102000006D917C91159719964C9150E06330710554
:1020100081F4816089839A834F5F5F4F02E010E013
:10202000BE016F5F7F4FCF010E945B048111CBCF58
:1020300094CF6115710519F490689983EFCF6230E0
:10204000710511F49F77F9CF6130710539F7906C04
:10205000F4CF838590E0982F8827D60111969C9322
:102060008E932485BDCF2F923F924F925F926F92B5
:102070007F928F929F92AF92BF92CF92DF92EF9218
:10208000FF920F931F93CF93DF9300D01F921F9265
:10209000CDB7DEB7B82E962E4D8319010E94EF07FB
:1020A0006B017C018D8019821C82282D30E03B83DE
:1020B0002A832801712C612C81E080932E04B09238
:1020C000500410922F0410925104692D82E594E07F
:1020D0000E945B0281E00E94190591E090932E041A
:1020E00010922F041092510441E0682D8B2D0E9414
:1020F0001707A82E1092E0038093DF038091E0037E
:10210000A816E1F00115110571F482E594E00E9432
:102110001402F1012C81E20FF11D27FDFA95808355
:102120002F5F2C83EBCF0E94EF076C197D098E097E
:102130009F09641575058605970538F381E00E94AF
:10214000190589813D81830F831A91E09983831753
:1021500008F4B2CF01151105C1F00E94EF076C1908
:102160007D098E099F0930E020E060177107820722
:10217000930758F02C81822F220F990B2A813B81E3
:102180008217930714F43FEF3C838C810F900F90DC
:102190000F900F900F90DF91CF911F910F91FF90B3
:1021A000EF90DF90CF90BF90AF909F908F907F90F7
:1021B0006F905F904F903F902F900895BF92CF9275
:1021C000DF92EF92FF920F931F93CF93DF931F92B3
:1021D0001F92CDB7DEB7F82EE62EC42EB22ED02E2B
:1021E00008EE13E09E012E5F3F4F41E00E94331046
:1021F000882399F18C2D8B19990BAC014F5F5F4FA0
:1022000081E090E002C0880F991FBA94E2F701972D
:10221000042E01C0880F0A94EAF70D2D01C0000FAB
:102220004A95EAF7982F90952A8192238023892B4B
:102230008A838983AE014F5F5F4F6E2D8F2D0E9481
:1022400042060F900F90DF91CF911F910F91FF9059
:10225000EF90DF90CF90BF90089580E0F2CF40E004
:1022600050E0BA0184EC95E00E94880940E050E01B
:1022700060E070E886EC95E00E94880910924205C3
:10228000109284030895FC0101900020E9F7319732
:10229000AF01481B590BBC018EE594E00C94030878
:1022A000FB0101900020E9F73197AF01461B570B66
:1022B0000C94DA0A2F923F924F925F926F927F9224
:1022C0008F929F92AF92BF92CF92DF92EF92FF9246
:1022D0000F931F93CF93DF93CDB7DEB76C970FB6F5
:1022E000F894DEBF0FBECDBF8C011B01DC0114963C
:1022F0008C9114978F77863009F474C278F4823009
:10230000B0F0843008F04CC212964D915C91139756
:102310006D917C91C1010E94DA0A26C28C3069F16C
:1023200060F4883009F459C28A3009F43FC260E68B
:1023300072E0C1010E945011E5C1803209F4ECC184
:102340008034A9F76BE5C1010E94C50AF80100813C
:1023500011810115110509F4DAC1B101C8010E940A
:102360005A11C8010E94640F8C01892B09F4CFC156
:102370006CE2C1010E94C50AECCFF801C080D18097
:10238000E280F380A7019601C701B6010E94CA2628
:102390008111CDCF20E030E0A901C701B6010E9434
:1023A000CA26882379F0A7019601C701B6010E94C9
:1023B00047289B01AC01C701B6010E94CA268823A9
:1023C00009F4B5CF20E030E0A901C701B6010E94B1
:1023D000CA2687FF08C06DE2C1010E94C50AF7FA4C
:1023E000F094F7F8F09420E836E948E15BE4C7019F
:1023F000B6010E945B2987FD81C074E1A72EB12C34
:1024000000E210E0188E1F8AF501E65EFD4F25916F
:10241000359145915491C701B6010E945B2987FD12
:1024200013C0F501E651FE4F259135914591549128
:10243000C701B6010E9430276B017C012F89388DBE
:10244000200F311F388F2F8B1595079534E0A31A75
:10245000B1088CEFA8168FEFB806B1F655245A9440
:1024600020E030E0A901C701B6010E945B291816DF
:102470000CF04BC02CEA35EC47E257E3C701B6013C
:102480000E94CA2618160CF440C0A52DB4E0AB0279
:10249000C0011124912C812CFC01EE5FFD4F3F0106
:1024A0009C01265E3D4F59013FEF531671F1F30138
:1024B000E80DF91D6591759185919491A70196019B
:1024C0000E945B2918169CF4F501E80DF91D259171
:1024D000359145915491C701B6010E9430276B0197
:1024E0007C018F89988D801B910B988F8F8B159510
:1024F00007955A9494E0891A9108D6CF00E210E02B
:1025000055E0552E188E1F8AABCFC701B6010E9429
:102510002C294B015C012B013C0106E080E492E494
:10252000AFE0B0E0898F9A8FAB8FBC8F102F015036
:102530009AE04916510461047104C8F0698D7A8DDE
:102540008B8D9C8D2AE030E040E050E00E94F9271E
:10255000298F3A8F4B8F5C8FC301B2012AE030E0A4
:1025600040E050E00E94F92729013A01DFCFC50180
:10257000B4010E94CF269B01AC01C701B6010E94A5
:1025800046286B017C01698D7A8D8B8D9C8D0E9414
:10259000CF269B01AC01C701B6010E9430272B0159
:1025A0003C010E942C296B017C010E94CF269B01DB
:1025B000AC01C301B2010E9446289B01AC010E94FC
:1025C00047280E942C29C60ED71EE81EF91E898DA9
:1025D0009A8DAB8DBC8DC816D906EA06FB06D8F0DD
:1025E0009FEF891A990AA90AB90AAF89B88DAB2B4E
:1025F00039F1BAE08B169104A104B10408F1EF8916
:10260000F88D3196F88FEF8BC12CD12C7601812C6F
:10261000912C540183942AE0422E512C612C712C70
:10262000C701B601A30192010E94F927672B682B0D
:10263000692B51F4111644F469017A011150F0CF5D
:10264000C12CD12C7601E7CFB501A401C1010E94B4
:10265000EF0A112371F14E01F1E18F0E911C012F50
:1026600054019AE0492E512C612C712C015068F0D4
:10267000C701B601A30192010E94F927605DD40150
:102680006E934D0169017A01F1CF812F90E0BC0179
:1026900060957095F501E81BF90B31978EE2808308
:1026A00044275527461B570B6A0D7B1DC1010E940D
:1026B000DA0AEF89F88DEF2B29F165E6C1010E9456
:1026C000C50A0F89188D17FF07C06DE2C1010E946E
:1026D000C50A119501951109FE0177969F018AE0BF
:1026E000E82EF12CC801B7010E942A28805D829350
:1026F0008B01672BB9F7A9014E1B5F0BBF01C1010D
:102700000E94DA0AD10112968D919C9130C06DE53C
:10271000C1010E94C50AF6CF6BE7C1010E94C50A3C
:10272000F8010081118101151105D1F0D80116962B
:102730006D917C91C1010E943B0B6AE3C1010E9433
:10274000C50AB101C8010E945A11C8010E94640F54
:102750008C01892B29F06CE2C1010E94C50AE3CFEC
:102760006DE7C1010E94C50AF101828193816C96D7
:102770000FB6F894DEBF0FBECDBFDF91CF911F9192
:102780000F91FF90EF90DF90CF90BF90AF909F9010
:102790008F907F906F905F904F903F902F90089513
:1027A0006D917C91C1010E943B0BDECFCD90DD90FD
:1027B000ED90FC90B701A601F7FE0BC06DE2C101E0
:1027C0000E94C50A44275527BA014C195D096E09B4
:1027D0007F09C1010E94EF0AC7CF4D915D916D91B4
:1027E0007C91F7CF8C9165E672E0811102C06AE6B8
:1027F00072E0C1010E945011B7CF85ED8093BC00FB
:1028000080912A0490912B04A0912C04B0912D0466
:102810000796A11DB11D23E0B695A79597958795BD
:102820002A95D1F72091BC0024FD03C01092280402
:10283000089540912A0450912B0460912C047091CA
:102840002D04452B462B472B69F30097A105B105B5
:1028500041F025E32A95F1F700000197A109B1099C
:10286000E1CF809129040C943D03CF92DF92EF9247
:10287000FF920F931F93CF93DF936C01FC01E080D5
:10288000F180F70102811381C081D181C017D10786
:1028900078F40115110541F0209731F0BE01C8010F
:1028A0000E94852A892B69F089918111FDCFEECF95
:1028B000F60184819581800F911FF70193838283B4
:1028C000E801CE01DF91CF911F910F91FF90EF9022
:1028D000DF90CF9008950F931F93CF93DF938B01D9
:1028E000EC01892BA1F06E817F816017710779F06F
:1028F0000115110541F06115710529F0C8010E940B
:10290000852A892B21F0CE010E94640FE9CFCE01E8
:10291000DF91CF911F910F9108959F92AF92BF9237
:10292000CF92DF92EF92FF920F931F93CF93DF939B
:10293000EC018B01E42E0E94D90BF82E81110EC000
:10294000F12C8F2DDF91CF911F910F91FF90EF9080
:10295000DF90CF90BF90AF909F900895CE010E94DE
:10296000800B873209F415C114F5823209F411C1C4
:10297000CE010E94800BB82E6E01FFE0CF0ED11C5D
:10298000E12C9C2CAD2C8B2D0E94680B882309F424
:1029900022C18FE3E81609F41EC11C86E394F601F8
:1029A000B1926F01CE010E94800BB82EECCF8B3517
:1029B00009F455C08B37E1F6F80184818078806294
:1029C00084831182108213821282EE2009F452C095
:1029D0001C86CE010E94D90B882309F4B1CF6DE784
:1029E000CE010E94C80B8111ACCFEA94E881F98135
:1029F000828193819B838A83848195812281338123
:102A0000821B930B9F838E831D821C82CE010E94AA
:102A1000800B873209F46EC0823209F46BC0CE019C
:102A20000E94800BD82E0E94680B882309F45DC099
:102A30001C866D2DCE010E94420CCE010E94800B9F
:102A4000D82E0E94680B8111F3CF60E0CE010E9466
:102A5000420C8A819B81892B09F052C027C0F80162
:102A60008481807880648483118210821382128230
:102A7000E11007C0C15BDF4F85E090E09983888358
:102A80005FCF1C86CE010E94D90B882309F458CF52
:102A90006DE5CE010E94C80B811153CFEA946D857C
:102AA0007E85C8010E940B0F009729F4C15BDF4FA0
:102AB00084E090E0E3CF4E2DBC01CE010E948D1446
:102AC000882309F43DCFCE010E94D90B882309F455
:102AD00037CF6DE5CE010E94C80B811132CF6CE279
:102AE000CE010E94C80B8111DACFC15BDF4F83E0BA
:102AF00090E0C4CFCE010E94600C882309F420CF5F
:102B0000CE010E94D90B882309F41ACF6AE3CE01C3
:102B10000E94C80B882349F36A817B81F801808178
:102B200091810E946B14BC01892B99F4CE010E9403
:102B300035146C016D857E85C8010E940B0FFC0168
:102B4000892B09F4B3CF848180688483D782C682BD
:102B5000BF014E2DCE010E948D14882309F4F0CEC2
:102B6000CE010E94D90B882309F4EACE6DE7CE018D
:102B70000E94C80B8111E5CE6CE2CE010E94C80B09
:102B8000882309F4B2CFCE010E94D90B81112ECF38
:102B9000D7CEE881F981828193819B838A83848166
:102BA000958122813381821B930B9F838E831D82AB
:102BB0001C82CE010E94600CF82E882309F4C0CE3E
:102BC000CE010E943514F8012481207825602483E9
:102BD00091838083B6CEFE01EE0DF11D17868F85A1
:102BE000843781F4F801848180788660848381E071
:102BF0008083F4E0EF1609F4A4CEC15BDF4F82E0DE
:102C000090E03CCF863641F4F8018481807886607C
:102C100084831082F5E0EECF8E3621F484E0E81252
:102C2000ECCF8FCEB801892D9A2D0E94530D8823A9
:102C300009F45BCF86CEFC01248125FF04C080818E
:102C400091810C946B1490E080E008958F929F9294
:102C5000AF92BF92CF92DF92EF92FF920F931F93AA
:102C6000CF93DF93CDB7DEB7C356D2400FB6F894FB
:102C7000DEBF0FBECDBFCE010F969A8389839C83A2
:102C80008B8383E092E08C0F9D1F9E838D839887BA
:102C90008F8319861E8682509240C45ADD4F9983D5
:102CA0008883CC55D24028E0FE01E45AFD4FDE0176
:102CB000AC5ABD4F01900D922A95E1F728E0FE0134
:102CC000EC5AFD4FDE01AD5FBD4F01900D922A958C
:102CD000E1F7C55FDD4F1882CB50D2402EE534E0DE
:102CE000C45FDD4F39832883CC50D240C15FDD4FB4
:102CF0001882CF50D240C05FDD4F99838883C05186
:102D0000D240CE5ADD4F19821882C255D2404AE0D5
:102D1000BE01665F7F4F8E5F9D4F0E948D14CE5A1D
:102D2000DD4F08811981C255D24001151105A9F561
:102D3000C25FDD4F8881CE50D240882371F18E85ED
:102D400083FF2BC010928D0303E010E089E792E02F
:102D50000E944311000F111FF801E15EFD4F8081B9
:102D60009181009711F00E94431180E992E00E9446
:102D70004311CD59DD4F0FB6F894DEBF0FBECDBF66
:102D8000DF91CF911F910F91FF90EF90DF90CF9047
:102D9000BF90AF909F908F90089510928D03011572
:102DA0001105A1F660E772E0CE010A960E941B169B
:102DB0000E94400F811110C060E772E0CE010A96B8
:102DC0000E941B160E94C40E6093850370938603B5
:102DD000809387039093880363E972E0CE010A969B
:102DE0000E941B160E94400F81110EC063E972E021
:102DF000CE010A960E941B160E94C40E0E942C2926
:102E000070938A03609389036DE972E0CE010A969C
:102E10000E941B160E94400F182F81112AC06DE9D5
:102E200072E0CE010A960E941B16FC01892BF9F074
:102E300094819F77983009F4D6C030F49923B9F083
:102E40009630A1F011E013C09A3009F4CCC09C3048
:102E5000C9F711E020E030E0A90160817181828131
:102E600093810E94CA26811102C0C7C010811093AD
:102E70008B0363EA72E0CE010A960E941B160E9441
:102E8000400F811176CF1092740563EA72E0CE0193
:102E90000A960E941B16009721F062E070E00E94E3
:102EA0004B0F0E94C40E6B017C0163EA72E0CE01FD
:102EB0000A960E941B16009721F061E070E00E94C4
:102EC0004B0F0E94C40E4B015C0163EA72E0CE011D
:102ED0000A960E941B16009721F070E060E00E94A5
:102EE0004B0F0E94C40E60935E0570935F05809344
:102EF0006005909361058092620590926305A092AF
:102F00006405B0926505C0926605D0926705E092AF
:102F10006805F092690563EA72E0CE010A960E94A4
:102F20001B16009721F063E070E00E944B0F0E9497
:102F3000C40E60938A0570938B0580938C059093E3
:102F40008D0563EA72E0CE010A960E941B16009777
:102F500021F064E070E00E944B0F0E94C40E609369
:102F6000700570937105809372059093730580913D
:102F70006A0590916B05892B09F4FBCE80916C0555
:102F800090916D05892B09F4F4CE81E0809374054E
:102F90000E94EF0700917A0510917B0520917C0536
:102FA00030917D05DC01CB01800F911FA21FB31F63
:102FB0008093820590938305A0938405B093850543
:102FC0001092750510929205109293051092940537
:102FD00010929505109296051092970510929805FB
:102FE00010929905C6CE11E080819181A281B381B2
:102FF000892B8A2B8B2B09F03ACF10E038CFEF9238
:10300000FF920F931F93CF93DF93EC018C81982F46
:103010009F7739F4807880628C83198218821B82B2
:103020001A828C8185FF1EC061157105D9F07A0165
:103030008B01888199810E946B14009761F4B7011C
:10304000CE010E940B0F009731F0FC0124812F77F5
:10305000248317830683DF91CF911F910F91FF90F7
:10306000EF90089590E080E0F6CF8F929F92AF921C
:10307000BF92CF92DF92EF92FF920F931F93CF9365
:10308000DF93CDB7DEB7CA52D2400FB6F894DEBF99
:103090000FBECDBFCE010F969A8389839C838B830D
:1030A00083E092E08C0F9D1F9E838D8398878F8392
:1030B00019861E860E94EF076B017C01AE014F5FEF
:1030C0005F4F6BEA72E0CE010A960E94FF17FC0187
:1030D000892B41F09481907898609483C082D1824A
:1030E000E282F38280917B00877F80937B0085E47E
:1030F00080937C0080917A00806480937A00809134
:103100007A0086FDFCCF0091780010917900AE0125
:103110004F5F5F4F60EB72E0CE010A960E94FF178F
:10312000FC01892B69F0948190789A609483A801BE
:10313000052E000C660B770B4083518362837383EB
:10314000C0908003D0908103E0908203F0908303CD
:10315000AE014F5F5F4F67EB72E0CE010A960E94AF
:10316000FF17FC01892B41F0948190789A60948339
:10317000C082D182E282F382C0907005D090710546
:10318000E0907205F0907305AE014F5F5F4F6EEBFC
:1031900072E0CE010A960E94FF17AC01C701B6018A
:1031A0000E94B60AAE014F5F5F4F63EC72E0CE0142
:1031B0000A960E94FF17AC0160E070E0CB010E940C
:1031C000B60A8091B4059091B505CE5EDD4F1882A8
:1031D00019821A821B82C251D240CD5FDD4F998382
:1031E0008883C350D240CB5FDD4F19821882C5500F
:1031F000D24011E0C45FDD4F1883CC50D24082E052
:1032000090E0C75FDD4F99838883C950D240C35F88
:10321000DD4F1883CD50D24002E0C55FDD4F0883FB
:10322000CB50D240BE016A5E7D4FCE018D5F9D4F77
:103230000E94720F8093B605CA5EDD4F6881798166
:10324000C651D24083E0769567958A95E1F77B0178
:10325000EE0CFF1CEE0CFF1C8091B4059091B5059F
:10326000CE5EDD4F188219821A821B82C251D24073
:10327000CD5FDD4F99838883C350D240CB5FDD4F54
:1032800019821882C550D240C45FDD4F1883CC50DC
:10329000D24081E090E0C75FDD4F99838883C950B9
:1032A000D240C35FDD4F1883CD50D240C55FDD4FA4
:1032B0000883CB50D240BE016A5E7D4FCE018D5F48
:1032C0009D4F0E94720F8093B605CA5EDD4F6881E4
:1032D0007981C651D240072E000C880B990B0E94B1
:1032E000D1262AE037ED43E25CE30E94302720E05C
:1032F00030E04AE754E40E94B3284B015C01B70177
:10330000FF0C880B990B0E94D1262FE632E143E88F
:103310005AE30E9430279B01AC01C501B4010E9411
:1033200047286B017C01AE014F5F5F4F60ED72E09B
:10333000CE010A960E94FF17AC01C701B6010E9498
:10334000B60A8091B4059091B505CB5DDD4F18822A
:1033500019821A821B82C552D240CA5EDD4F998300
:103360008883C651D240C85EDD4F19821882C85189
:10337000D240C15EDD4F1883CF51D24085E090E04E
:10338000C45EDD4F99838883CC51D240C05EDD4F4F
:103390001883C052D240C25EDD4F0883CE51D24066
:1033A0004091B8055091B9056091BA057091BB057F
:1033B000CE018A5E9D4F0E947F068091B405909158
:1033C000B505CE5EDD4F188219821A821B82C2516A
:1033D000D240CD5FDD4F99838883C350D240CB5F0D
:1033E000DD4F19821882C550D240C45FDD4F18836B
:1033F000CC50D24084E090E0C75FDD4F9983888352
:10340000C950D240C35FDD4F1883CD50D240C55F55
:10341000DD4F0883CB50D240BE01675D7D4FCE01AA
:103420008D5F9D4F0E94720F8093B605C75DDD4F83
:1034300068817981C952D240072E000C880B990B04
:103440000E94D1266B017C016091BC057091BD0585
:103450008091BE059091BF050E94CF269B01AC01D3
:10346000C701B6010E94B32820E030E04AE754E4E7
:103470000E94B3286B017C01AE014F5F5F4F68ED86
:1034800072E0CE010A960E94FF17AC01C701B60197
:103490000E94B60AAE014F5F5F4F60E772E0CE0157
:1034A0000A960E94FF17AC01609185037091860314
:1034B00080918703909188030E94B60AAE014F5F06
:1034C0005F4F63E972E0CE010A960E94FF17FC018C
:1034D000892B79F02091890330918A039481907827
:1034E00098609483C901B0E0A0E080839183A283B7
:1034F000B383AE014F5F5F4F60EE72E0CE010A967C
:103500000E94FF17FC0180918403309759F0948149
:1035100090789860948390E0B0E0A0E080839183FD
:10352000A283B38308EE13E02BE935E042E06BE3BE
:1035300080919A050E94331060919B0570919C05C3
:10354000762767277627072E000C880B990B0E9499
:10355000D12620E030E040E858E30E9430276B019C
:103560007C01AE014F5F5F4F68EE72E0CE010A96BC
:103570000E94FF17AC01C701B6010E94B60A2BE9F1
:1035800035E042E06DE380919A050E94331060912E
:103590009B0570919C05762767277627072E000CE0
:1035A000880B990B0E94D12620E030E040E858E3D8
:1035B0000E9430276B017C01AE014F5F5F4F6FEEC1
:1035C00072E0CE010A960E94FF17AC01C701B60156
:1035D0000E94B60A2BE935E042E06FE380919A053C
:1035E0000E94331060919B0570919C057627672798
:1035F0007627072E000C880B990B0E94D12620E01D
:1036000030E040E858E30E9430276B017C01AE01B6
:103610004F5F5F4F66EF72E0CE010A960E94FF1780
:10362000AC01C701B6010E94B60A2BE935E042E0C1
:1036300063E480919A050E94331060919B0570911C
:103640009C05762767277627072E000C880B990B99
:103650000E94D12620E030E04AE753E40E94302760
:1036600020E030E040E058E30E9430276B017C010D
:10367000AE014F5F5F4F6DEF72E0CE010A960E9480
:10368000FF17AC01C701B6010E94B60A2BE935E06D
:1036900042E065E480919A050E94331060919B0599
:1036A00070919C05762767277627072E000C880BDC
:1036B000990B0E94D12620E030E04AE753E40E94B3
:1036C000302720E030E040E058E30E9430276B01D3
:1036D0007C01AE014F5F5F4F63E073E0CE010A965D
:1036E0000E94FF17AC01C701B6010E94B60A2BE980
:1036F00035E042E067E480919A050E9433106091C2
:103700009B0570919C05762767277627072E000C6E
:10371000880B990B0E94D12620E030E04AE753E461
:103720000E94302720E030E040E058E30E9430273C
:103730006B017C01AE014F5F5F4F69E073E0CE012A
:103740000A960E94FF17AC01C701B6010E94B60A93
:1037500010917505AE014F5F5F4F6FE073E0CE01D2
:103760000A960E94FF17FC01892B29F0948190781A
:1037700096609483108360917E0570917F0580919F
:103780008005909181050E94CF266B017C01AE01DE
:103790004F5F5F4F66E173E0CE010A960E94FF170C
:1037A000AC01C701B6010E94B60A8EE594E0CD5F78
:1037B000DD4F99838883C350D240CB5FDD4F1982A0
:1037C0001882C550D240BE016D5F7D4FCE010A9672
:1037D0000E945A1180E992E00E94431110928C03DA
:1037E000C65DDD4F0FB6F894DEBF0FBECDBFDF91D3
:1037F000CF911F910F91FF90EF90DF90CF90BF90EE
:10380000AF909F908F9008951F920F920FB60F92D6
:1038100011240BB60F922F933F934F935F936F93A7
:103820007F938F939F93AF93BF93EF93FF93809179
:10383000B900887F803609F44DC008F040C0883256
:1038400009F4A9C028F5803109F49DC0C8F4882383
:1038500009F4FBC0883009F496C0FF91EF91BF9145
:10386000AF919F918F917F916F915F914F913F9118
:103870002F910F900BBE0F900FBE0F901F901895B9
:10388000883109F488C0803241F78093260414C03F
:10389000803409F49DC040F48033B9F38833E9F6ED
:1038A0008093260485ECB0C0803509F485C0883546
:1038B00009F496C0883489F60E94FD13CECF88396A
:1038C00009F48CC038F5883729F050F4883611F0A7
:1038D000803719F683E0809328041092DA0357C0EA
:1038E000883809F47BC0803919F0803809F0B5CFE9
:1038F0008091DA03803208F071C0E091DA0381E050
:103900008E0F8093DA038091BB00F0E0E654FC4F09
:1039100080833DC0803B39F0E0F4803A09F479C0FF
:10392000883A09F09ACF84E0809328041092B90372
:103930001092B803E091DB03F091DC0319958091BC
:10394000B80381110FC081E08093B80310929803EF
:1039500009C0803C09F4A6CF883C09F4A3CF883B7A
:1039600009F07BCFE091B90381E08E0F8093B9031A
:10397000F0E0E856FC4F80818093BB009091B90342
:103980008091B80329C0809103048093BB0085EC2B
:103990008093BC0062CF90912504809124049817F5
:1039A00058F5E091250481E08E0F80932504F0E026
:1039B000EC5FFB4F8081E9CFE091250481E08E0F21
:1039C000809325048091BB00F0E0EC5FFB4F808387
:1039D00090912504809124049817C8F285E8D8CFE7
:1039E000E091250481E08E0F809325048091BB0037
:1039F000F0E0EC5FFB4F80838091270481115CCF66
:103A000081E08093020484EA8093BC001092280431
:103A100024CF85EC8093BC00109228048091DA03B7
:103A2000803230F4E091DA03F0E0E654FC4F10828B
:103A30006091DA0370E0E091DD03F091DE038AEB40
:103A400093E019951092DA0308CF1092260434CF30
:103A50001F920F920FB60F9211242F933F938F93C3
:103A60009F93AF93BF9380918F0390919003A09108
:103A70009103B091920330918E0323E0230F2D37F1
:103A800058F50196A11DB11D20938E0380938F03DD
:103A900090939003A0939103B0939203809193032A
:103AA00090919403A0919503B09196030196A11D66
:103AB000B11D8093930390939403A0939503B093C7
:103AC0009603BF91AF919F918F913F912F910F904E
:103AD0000FBE0F901F90189526E8230F0296A11D88
:103AE000B11DD2CF1F920F920FB60F9211240BB6B9
:103AF0000F922F933F934F935F936F937F938F9387
:103B00009F93AF93BF93EF93FF93E0910F02F091D8
:103B100010021995FF91EF91BF91AF919F918F91F5
:103B20007F916F915F914F913F912F910F900BBEBD
:103B30000F900FBE0F901F9018951F920F920FB607
:103B40000F9211240BB60F922F933F934F935F93D5
:103B50006F937F938F939F93AF93BF93EF93FF9355
:103B6000E0910D02F0910E021995FF91EF91BF9136
:103B7000AF919F918F917F916F915F914F913F9105
:103B80002F910F900BBE0F900FBE0F901F901895A6
:103B90001F920F920FB60F9211240BB60F922F9314
:103BA0003F934F935F936F937F938F939F93AF93C5
:103BB000BF93EF93FF93E0910302F09104021995F4
:103BC000FF91EF91BF91AF919F918F917F916F91F5
:103BD0005F914F913F912F910F900BBE0F900FBEB1
:103BE0000F901F9018951F920F920FB60F921124ED
:103BF0000BB60F922F933F934F935F936F937F93E7
:103C00008F939F93AF93BF93EF93FF93E091010244
:103C1000F09102021995FF91EF91BF91AF919F91A1
:103C20008F917F916F915F914F913F912F910F9065
:103C30000BBE0F900FBE0F901F9018951F920F9202
:103C40000FB60F9211240BB60F922F933F934F9301
:103C50005F936F937F938F939F93AF93BF93EF93F4
:103C6000FF93E0910B02F0910C021995FF91EF91F7
:103C7000BF91AF919F918F917F916F915F914F9184
:103C80003F912F910F900BBE0F900FBE0F901F9082
:103C900018951F920F920FB60F9211240BB60F9228
:103CA0002F933F934F935F936F937F938F939F9344
:103CB000AF93BF93EF93FF93E0910902F0910A0253
:103CC0001995FF91EF91BF91AF919F918F917F9146
:103CD0006F915F914F913F912F910F900BBE0F907D
:103CE0000FBE0F901F9018951F920F920FB60F9254
:103CF00011240BB60F922F933F934F935F936F93C3
:103D00007F938F939F93AF93BF93EF93FF93E09134
:103D10000702F09108021995FF91EF91BF91AF91C1
:103D20009F918F917F916F915F914F913F912F91D3
:103D30000F900BBE0F900FBE0F901F9018951F9203
:103D40000F920FB60F9211240BB60F922F933F9341
:103D50004F935F936F937F938F939F93AF93BF9393
:103D6000EF93FF93E0910502F09106021995FF9100
:103D7000EF91BF91AF919F918F917F916F915F91E3
:103D80004F913F912F910F900BBE0F900FBE0F9050
:103D90001F9018951F920F920FB60F9211240BB619
:103DA0000F922F933F934F935F936F937F938F93D4
:103DB0009F93AF93BF93EF93FF938091790390917B
:103DC0007A03A0917B03B0917C03892B8A2B8B2BE8
:103DD000D1F19091780380910000892780930000B1
:103DE0008091790390917A03A0917B03B0917C0339
:103DF000181619061A061B069CF4809179039091F7
:103E00007A03A0917B03B0917C030197A109B109CA
:103E10008093790390937A03A0937B03B0937C0300
:103E2000FF91EF91BF91AF919F918F917F916F9192
:103E30005F914F913F912F910F900BBE0F900FBE4E
:103E40000F901F90189580910002E2E3F2E0E49158
:103E50009FEF90930002E230E9F040F4EE2389F006
:103E6000E13091F060E00E94F102DACFE43049F1F4
:103E700010F1E530B9F7909173009D7F9093730036
:103E8000F1CF10926E00EECF90916F009D7F9093D6
:103E90006F00E8CF909170009D7F9093700091E04B
:103EA0009093B0009091B100987F94609093B1008E
:103EB0001092B300D7CF909171009D7F90937100C5
:103EC000D1CF909172009D7F90937200CBCF1F92C3
:103ED0000F920FB60F9211240BB60F922F933F93B0
:103EE0004F935F936F937F938F939F93AF93BF9302
:103EF000EF93FF938EE594E00E947A08FF91EF9193
:103F0000BF91AF919F918F917F916F915F914F91F1
:103F10003F912F910F900BBE0F900FBE0F901F90EF
:103F200018951F920F920FB60F9211240BB60F9295
:103F30002F938F939F93EF93FF93E0916E04F091F3
:103F40006F048081E0917404F091750482FD1DC0BE
:103F50009081809177048F5F8F732091780482170E
:103F600041F0E0917704F0E0E25AFB4F958F8093A7
:103F70007704FF91EF919F918F912F910F900BBE3E
:103F80000F900FBE0F901F9018958081F2CF1F9257
:103F90000F920FB60F9211240BB60F922F933F93EF
:103FA0004F935F936F937F938F939F93AF93BF9341
:103FB000CF93DF93EF93FF9380917703C091370501
:103FC000D0E087FF23C0109285001092840080917A
:103FD00077038F5F8093770380917703082E000C1F
:103FE000990B8C179D0724F4809177038C3074F122
:103FF000809184009091850084349C4908F465C0C8
:104000008091840090918500049661C0809177032F
:10401000082E000C990B8C179D07CCF63091770376
:1040200025E03203F0011124E550FB4F808186FF2B
:10403000CECF309177033203F0011124E550FB4FCE
:10404000808160E08F730E94F102C1CF8091840073
:10405000909185003091770325E03203F00111241F
:10406000E550FB4F41815281840F951F9093890049
:1040700080938800309177033203F0011124E550DA
:10408000FB4F808186FF0CC0309177033203F00133
:104090001124E550FB4F808161E08F730E94F10293
:1040A000FF91EF91DF91CF91BF91AF919F918F9150
:1040B0007F916F915F914F913F912F910F900BBE28
:1040C0000F900FBE0F901F90189580E49CE990937D
:1040D0008900809388008FEF80937703E1CF10925F
:1040E00055041092540488EE93E0A0E0B0E0809371
:1040F000560490935704A0935804B09359042FE2A8
:1041000032E03093530420935204109261041092D1
:1041100060048093620490936304A0936404B0935A
:10412000650481E492E090935F0480935E0485ECE3
:1041300090E090936B0480936A0484EC90E09093F9
:104140006D0480936C0480EC90E090936F048093F6
:104150006E0481EC90E0909371048093700482EC83
:1041600090E0909373048093720486EC90E09093B7
:10417000750480937404109277041092780410925E
:10418000790410927A048CE08093AA0584E28093EB
:10419000AB0585E08093AC0596E09093AD059EE17C
:1041A0009093AE059FE19093AF0592E29093B00596
:1041B00093E29093B10594E49093B20595E49093C3
:1041C000B3051092B5051092B40590E49093B7052D
:1041D0001092BC051092BD051092BE051092BF054D
:1041E0001092C0051092C1051092C2051092C3052D
:1041F00098E0E7E1F2E0ACECB5E001900D929A9521
:10420000E1F740E050E060EA70E44093D405509359
:10421000D5056093D6057093D705E0913705EC304E
:1042200008F0CAC091E09E0F90933705E093A9056E
:104230008E9FF0011124E550FB4F88EB9BE09283A9
:10424000818388E680939A0510925E0510925F053F
:10425000109260051092610510926205109263053C
:10426000109264051092650510926605109267051C
:10427000109268051092690510926B0510926A05FC
:1042800010926D0510926C0510926F0510926E05DC
:1042900010927005109271051092720510927305BC
:1042A0001092740510927505109282051092830584
:1042B000109284051092850510928605109287054C
:1042C000109288051092890580E090E0A0EAB0E4A1
:1042D00080938A0590938B05A0938C05B0938D05F0
:1042E00080E090E0A8ECB2E480938E0590938F0577
:1042F000A0939005B09391051092920510929305AA
:1043000010929405109295051092960510929705BB
:10431000109298051092990510924D0510924E0535
:1043200010924F05109250051092510510925205AF
:1043300010925305109254058FEF9FEFDC0180938C
:10434000560590935705A0935805B093590580934F
:104350005A0590935B05A0935C05B0935D051092A0
:10436000550510924C0510924B0510923A0510928B
:104370003B0510923C0510923D0510923E051092AF
:104380003F0510924005109241058093430590939C
:104390004405A0934505B093460580934705909347
:1043A0004805A0934905B0934A0510924205109222
:1043B00039051092380508958FEF8093A90541CFF4
:1043C000CF93DF93CDB7DEB7A6970FB6F894DEBFD5
:1043D0000FBECDBF789484B5826084BD84B5816002
:1043E00084BD85B5826085BD85B5816085BD8091C0
:1043F0006E00816080936E00109281008091810038
:10440000826080938100809181008160809381002F
:10441000809180008160809380008091B1008460F1
:104420008093B1008091B00081608093B000809152
:1044300091008260809391008091910081608093CF
:104440009100809190008160809390008091A10004
:1044500082608093A1008091A10081608093A1007F
:104460008091A00081608093A000809121018260F2
:1044700080932101809121018160809321018091AD
:10448000200181608093200180917A008460809374
:104490007A0080917A00826080937A0080917A001D
:1044A000816080937A0080917A00806880937A009E
:1044B0001092C100E0916E04F0916F0482E080835D
:1044C000E0916A04F0916B041082E0916C04F09129
:1044D0006D0480E1808310927604E0917204F09183
:1044E000730486E08083E0917004F0917104808110
:1044F00080618083E0917004F09171048081886014
:104500008083E0917004F0917104808180688083E1
:10451000E0917004F091710480818F7D808361E06F
:104520008091AB050E945E0360E08091AB050E9424
:10453000F10260E08091AA050E945E038091B405BB
:104540009091B505892BA9F486E090E00E9460293E
:10455000FC018091B705808382E594E0928381839A
:10456000138280E290E095838483F093B505E09315
:10457000B405E090B405F090B5051092E0031092F8
:10458000DF0310922F04109251040E941F038BED41
:1045900091E09093DC038093DB038CED91E09093AA
:1045A000DE038093DD0311E0D70113961C93C7014E
:1045B0000E940906882309F45BC080E090E1A0E036
:1045C000B0E08093B8059093B905A093BA05B09375
:1045D000BB058AE090E0A0E0B0E08093BC0590933A
:1045E000BD05A093BE05B093BF0580E090E0A0E0BC
:1045F000B0E48093C0059093C105A093C205B09329
:10460000C3058091B4059091B5051BA21CA21DA203
:104610001EA29D8B8C8B1F8A1E8A1D8F85E090E0C9
:104620009B8F8A8F1E8F02E00C8F40E050E160E08C
:1046300070E0CE0144960E947F068091B40590916F
:10464000B505188A198A1A8A1B8A9A8389831C825B
:104650001B821A8718861F821B8709874FE959E337
:1046600060E070E0CE0101960E947F068093B6055F
:104670003CEAE32E35E0F32E0AEA15E04CE9642E1D
:1046800042E0742E52EE852E52E0952E6BECC62E33
:1046900067E0D62E7BE8A72EBB24B394F701928166
:1046A000D7018D917D01F801828F938F61E00E9487
:1046B0005E0361E0D8015B968C910E945E03F70176
:1046C00095818381D8015E968C935E975F969C93CB
:1046D00061E00E945E0360E0F801878D0E945E0346
:1046E00061E0D8015E968C910E94F1025FB6F89469
:1046F00080917D03811125C0F3018491F40194918F
:10470000E82FF0E0EE0FFF1FED5CFD4FA591B49197
:104710008C91982321F461E085E30E94F10261E02D
:1047200085E30E945E038CB580618CBD8CB580648E
:104730008CBD61E084E30E945E0361E083E30E943C
:104740005E0380917D038F5F80937D035FBEC60112
:104750000197F1F760E0D8015E968C910E94F1021A
:1047600088E80E94AF0A83E00E94AF0A61E0F80186
:10477000868D0E94F102C6010197F1F760E0D80131
:104780005E968C910E94F10288E90E94AF0A80E057
:104790000E94AF0A80E00E94AF0A80E00E94AF0A48
:1047A00080E00E94AF0A61E0F801868D0E94F1026C
:1047B000C5010197F1F760E0D8015E968C910E94E7
:1047C000F10280EE0E94AF0A61E0F801868D0E943E
:1047D000F1020E5F1F4FF5E00E3A1F0709F05ECFA2
:1047E00001E023E042E06BE680919A050E94DE1032
:1047F00000E022E044E06BE180919A050E94DE1027
:1048000022E044E06CE180919A050E94DE10F09075
:104810009A0508EE13E09E012C5E3F4F41E06BE6E7
:104820008F2D0E9433108C898F7B8C8B8983AE01F6
:104830004F5F5F4F6BE68F2D0E94420682E08093B0
:104840007E0383E080937F0362E082E00E945E0348
:1048500062E080917F030E945E0390917E0392301C
:1048600009F08EC18FEF9BE09093020280930102CA
:1048700080916A008C7F826080936A00EC9A84E663
:1048800090E0A0E0B0E080934D0590934E05A0939A
:104890004F05B09350058BEF97E090934C058093B4
:1048A0004B0581E0809355050E94EF0700914D056F
:1048B00010914E0520914F0530915005DC01CB0140
:1048C000800F911FA21FB31F809351059093520533
:1048D000A0935305B09354058091560590915705C8
:1048E000A0915805B091590580935A0590935B05A6
:1048F000A0935C05B0935D058FE291E1909339053B
:104900008093380580E090E0A0E8BEE380935E05E8
:1049100090935F05A0936005B09361058DEC9CECCE
:10492000ACECBDE38093620590936305A0936405AE
:10493000B0936505109266051092670510926805A0
:10494000109269058FEF97E090936B0580936A054D
:1049500080E098E090936D0580936C0581E098E08D
:1049600090936F0580936E058FE692E1A3E8BAE31A
:1049700080938A0590938B05A0938C05B0938D0549
:1049800088EC90E0A0E0B0E080937A0590937B05FE
:10499000A0937C05B0937D058DEC9CECACE4BEE36C
:1049A0008093760590937705A0937805B093790569
:1049B00011E080918D0381110E94261680918C0355
:1049C00081110E94351880918B03882309F463C0FC
:1049D0008091890390918A03B0E0A0E080933A052A
:1049E00090933B05A0933C05B0933D05809138051D
:1049F00090913905892B51F1109342050E94EF07E0
:104A0000C0903A05D0903B05E0903C05F0903D0504
:104A1000DC01CB018C0D9D1DAE1DBF1D80933E059D
:104A200090933F05A0934005B093410580914305C5
:104A300090914405A0914505B091460580934705A6
:104A400090934805A0934905B0934A0581E090E012
:104A5000A0E0B0E08093430590934405A093450502
:104A6000B0934605C0908503D0908603E0908703FD
:104A7000F0908803B701A60184EC95E00E948809B4
:104A8000B701A601705886EC95E00E948809109243
:104A90008B03109384038BE495E00E943C0988E328
:104AA00095E00E943C090E94EF07C0908205D090DB
:104AB0008305E0908405F09085056C157D058E05D5
:104AC0009F0508F45AC080917405882309F455C0E5
:104AD0000E94EF07C0907A05D0907B05E0907C059E
:104AE000F0907D05DC01CB018C0D9D1DAE1DBF1D21
:104AF0008093820590938305A0938405B0938505E8
:104B0000C0907005D0907105E0907205F09073052B
:104B1000E0916A05F0916B0519959B01AC01C70105
:104B2000B6010E9446286B017C019F7720918A057F
:104B300030918B0540918C0550918D050E94CA26BD
:104B400087FF65C01093750510927405E0916E059E
:104B5000F0916F05309709F0199580918205909139
:104B60008305A0918405B091850580938605909377
:104B70008705A0938805B09389050E940D0919CF78
:104B8000933071F48FEF9BE09093040280930302C3
:104B900080916A00837F886080936A00ED9A6FCE6F
:104BA0008EEE890F843008F06ACE87E1891BE82FEA
:104BB000F0E0EE0FFF1FEF5FFD4F2FEF3BE0318383
:104BC00020838430A1F08530D1F0833041F0809192
:104BD00069008C7F826080936900E89A50CE809152
:104BE0006900837F886080936900E99A48CE80914C
:104BF00069008F7C806280936900EA9A40CE809140
:104C000069008F73806880936900EB9A38CE20909A
:104C10006C0530906D050E94EF078090860590909E
:104C20008705A0908805B0908905681979098A09D7
:104C30009B0960937E0570937F0580938005909318
:104C400081052091920530919305409194055091F2
:104C50009505C701B6010E9447286093920570939D
:104C60009305809394059093950580908E05909080
:104C70008F05A0909005B0909105A50194010E9428
:104C80005B29181644F48092920590929305A092A5
:104C90009405B0929505B7FAB094B7F8B094A50111
:104CA0009401609192057091930580919405909183
:104CB00095050E94CA2687FF08C0809292059092AF
:104CC0009305A0929405B0929505809076059090FA
:104CD0007705A0907805B0907905209192053091E4
:104CE00093054091940550919505609162057091EE
:104CF000630580916405909165050E943027A501A8
:104D000094010E9430272B013C0120915E053091D7
:104D10005F054091600550916105C701B6010E9491
:104D200030279B01AC01C301B2010E9447282B012F
:104D30003C0120919605309197054091980550913E
:104D40009905C701B6010E94462820916605309159
:104D5000670540916805509169050E943027A501BB
:104D600094010E94B3289B01AC01C301B2010E94CF
:104D70004728C0929605D0929705E0929805F09248
:104D80009905F1011995E9CE8091B4059091B50589
:104D90000C94FC290E940C2708F481E00895E89403
:104DA00009C097FB3EF490958095709561957F4F73
:104DB0008F4F9F4F9923A9F0F92F96E9BB27939521
:104DC000F695879577956795B795F111F8CFFAF431
:104DD000BB0F11F460FF1BC06F5F7F4F8F4F9F4F62
:104DE00016C0882311F096E911C0772321F09EE8C0
:104DF000872F762F05C0662371F096E8862F70E026
:104E000060E02AF09A95660F771F881FDAF7880FFF
:104E10009695879597F90895990F0008550FAA0B55
:104E2000E0E8FEEF16161706E807F907C0F01216BD
:104E30001306E407F50798F0621B730B840B950BC0
:104E400039F40A2661F0232B242B252B21F4089515
:104E50000A2609F4A140A6958FEF811D811D0895B2
:104E60000E9443270C94B4270E94A62738F00E9482
:104E7000AD2720F0952311F00C949D270C94A327C7
:104E800011240C94E8270E94C52770F3959FC1F365
:104E9000950F50E0551F629FF001729FBB27F00DE8
:104EA000B11D639FAA27F00DB11DAA1F649F66273D
:104EB000B00DA11D661F829F2227B00DA11D621F8C
:104EC000739FB00DA11D621F839FA00D611D221F46
:104ED000749F3327A00D611D231F849F600D211D2A
:104EE000822F762F6A2F11249F5750409AF0F1F0AD
:104EF00088234AF0EE0FFF1FBB1F661F771F881F16
:104F000091505040A9F79E3F510580F00C949D2789
:104F10000C94E8275F3FE4F3983ED4F386957795A9
:104F20006795B795F795E7959F5FC1F7FE2B880FBB
:104F3000911D9695879597F9089597F99F6780E851
:104F400070E060E008959FEF80EC089500240A94DB
:104F50001616170618060906089500240A94121654
:104F60001306140605060895092E0394000C11F487
:104F7000882352F0BB0F40F4BF2B11F460FF04C034
:104F80006F5F7F4F8F4F9F4F089557FD9058440F8D
:104F9000551F59F05F3F71F04795880F97FB991F98
:104FA00061F09F3F79F08795089512161306140655
:104FB000551FF2CF4695F1DF08C0161617061806E2
:104FC000991FF1CF86957105610508940895E894BD
:104FD000BB2766277727CB0197F908950E941B28E6
:104FE000A59F900DB49F900DA49F800D911D11243D
:104FF0000895A1E21A2EAA1BBB1BFD010DC0AA1F1A
:10500000BB1FEE1FFF1FA217B307E407F50720F031
:10501000A21BB30BE40BF50B661F771F881F991FAC
:105020001A9469F760957095809590959B01AC01F5
:10503000BD01CF010895A29FB001B39FC001A39FFE
:10504000700D811D1124911DB29F700D811D1124C1
:10505000911D0895AA1BBB1B51E107C0AA1FBB1FCE
:10506000A617B70710F0A61BB70B881F991F5A95F4
:10507000A9F780959095BC01CD010895EE0FFF1F13
:10508000881F8BBF0790F691E02D19945058BB27CD
:10509000AA270E945E280C94B4270E94A62738F005
:1050A0000E94AD2720F039F49F3F19F426F40C94A8
:1050B000A3270EF4E095E7FB0C949D27E92F0E94AF
:1050C000C52758F3BA17620773078407950720F0BE
:1050D00079F4A6F50C94E7270EF4E0950B2EBA2F81
:1050E000A02D0B01B90190010C01CA01A0011124EE
:1050F000FF27591B99F0593F50F4503E68F11A169A
:10510000F040A22F232F342F4427585FF3CF46952A
:1051100037952795A795F0405395C9F77EF41F164C
:10512000BA0B620B730B840BBAF09150A1F0FF0F16
:10513000BB1F661F771F881FC2F70EC0BA0F621F02
:10514000731F841F48F4879577956795B795F795F2
:105150009E3F08F0B0CF9395880F08F09927EE0F87
:105160009795879508950E94C7280C94B4270E94AC
:10517000AD2758F00E94A62740F029F45F3F29F0A0
:105180000C949D2751110C94E8270C94A3270E949E
:10519000C52768F39923B1F3552391F3951B550B5C
:1051A000BB27AA2762177307840738F09F5F5F4FFA
:1051B000220F331F441FAA1FA9F335D00E2E3AF039
:1051C000E0E832D091505040E695001CCAF72BD051
:1051D000FE2F29D0660F771F881FBB1F26173707A2
:1051E0004807AB07B0E809F0BB0B802DBF01FF27D4
:1051F00093585F4F3AF09E3F510578F00C949D27ED
:105200000C94E8275F3FE4F3983ED4F386957795B6
:105210006795B795F7959F5FC9F7880F911D96958C
:10522000879597F90895E1E0660F771F881FBB1FE8
:10523000621773078407BA0720F0621B730B840B95
:10524000BA0BEE1F88F7E09508950E942C29689408
:10525000B1110C94E82708950E94CD2788F09F573C
:1052600098F0B92F9927B751B0F0E1F0660F771F8A
:10527000881F991F1AF0BA95C9F714C0B13091F080
:105280000E94E727B1E008950C94E727672F782F55
:105290008827B85F39F0B93FCCF386957795679545
:1052A000B395D9F73EF490958095709561957F4FB1
:1052B0008F4F9F4F08950E940C2708F48FEF089599
:1052C0000F931F93CF93DF938230910510F482E008
:1052D00090E0E091DA05F091DB0530E020E0B0E00D
:1052E000A0E0309799F42115310509F44AC0281B34
:1052F000390B24303105D8F58A819B816115710500
:1053000089F1FB0193838283FE0111C040815181A9
:105310000281138148175907E0F04817590799F49B
:10532000109761F012960C93129713961C93329675
:10533000CF01DF91CF911F910F9108950093DA056E
:105340001093DB05F4CF2115310551F042175307B7
:1053500038F0A901DB019A01BD01DF01F801C1CFDD
:10536000EF01F9CF9093DB058093DA05CDCFFE01F5
:10537000E20FF31F819391932250310939832883DF
:10538000D7CF2091D8053091D905232B41F4209116
:105390001302309114023093D9052093D80520913F
:1053A0001102309112022115310541F42DB73EB79B
:1053B0004091150250911602241B350BE091D8053F
:1053C000F091D905E217F307A0F42E1B3F0B281725
:1053D000390778F0AC014E5F5F4F2417350748F06E
:1053E0004E0F5F1F5093D9054093D8058193919339
:1053F0009FCFF0E0E0E09CCFCF93DF930097E9F000
:10540000FC01329713821282A091DA05B091DB057C
:10541000ED0130E020E01097A1F420813181820F6E
:10542000931F2091D8053091D9052817390709F025
:1054300061C0F093D905E093D805DF91CF9108952D
:10544000EA01CE17DF07E8F54A815B819E0141152D
:105450005105B1F7E901FB83EA8349915991C40FE2
:10546000D51FEC17FD0761F4808191810296840FAE
:10547000951FE90199838883828193819B838A8325
:10548000F0E0E0E012968D919C9113970097B9F5AA
:105490002D913C911197CD010296820F931F20917F
:1054A000D8053091D9052817390739F6309751F5C5
:1054B0001092DB051092DA05B093D905A093D805B8
:1054C000BCCFD383C28340815181840F951FC817FD
:1054D000D90761F44E5F5F4F88819981480F591F4A
:1054E000518340838A819B81938382832115310577
:1054F00009F0B0CFF093DB05E093DA059ECFFD0114
:10550000DC01C0CF13821282D7CFFB01DC018D9169
:10551000019080190110D9F3990B089511E0CEE99B
:10552000D1E000E006C0802FFE010E943E282196B7
:10553000011DCF39D10780E00807A9F7F894FFCF04
:10554000FF02080208020802080208020802080214
:10555000080000DC058000300031003200330021FB
:105560000324032F033F034C035503000000005B9B
:10557000022E023008040227021402050200000075
:10558000009C0803083308E9086408420856082FFD
:105590002F22225C5C6208660C6E0A720D74090090
:1055A0006E756C6C00747275650066616C73650075
:1055B00070756C736550574D0064657365726961F1
:1055C0006C697A652829206661696C65643A2000F7
:1055D0000D0A0070756C736554696D650070756CAB
:1055E000736500736574476F616C0074696D650065
:1055F000706F7456657800656E6356657800676FE6
:10560000616C006D6561737572656D656E747300B4
:10561000766F6C746167650063757272656E740095
:10562000696E50756C736500616363656C580061E9
:105630006363656C5900616363656C5A00677972D6
:105640006F58006779726F59006779726F5A0069F5
:1056500073476F616C0061637475616C54696D654B
:10566000004F6B00456D707479496E707574004918
:105670006E636F6D706C657465496E70757400490A
:105680006E76616C6964496E707574004E6F4D651D
:0E5690006D6F727900546F6F44656570000095
:00000001FF
